:10088100C29FD29E758920758DFDD28ED299D29C40
:010891002244
:08089E003099FDC2998F9922E7
:0608A600A298E433FF22DA
:0508AC00C298AF992283
:06085C008B088A09890ADD
:10086200E4FEAB08AA09A90A8E8275830012082F3A
:0E087200FFFD3395E04D600612089E0E80E4F7
:010880002255
:10080000C2B3C2B21208811208A6EF60FA1208AC95
:10081000BF3102D2B21208ACBF3202D2B31208AC5E
:0F082000BF3302C2B21208ACBF34DCC2B380D8FF
:0300000002089261
:0C089200787FE4F6D8FD75810A020800AA
:10082F00BB010CE58229F582E5833AF583E022507E
:10083F0006E92582F8E622BBFE06E92582F8E222C8
:0D084F00E58229F582E5833AF583E49322E2
:00000001FF
